{
  "contractName": "Saskpolytech",
  "abi": [
    {
      "inputs": [
        {
          "internalType": "uint256",
          "name": "newPrice",
          "type": "uint256"
        }
      ],
      "stateMutability": "nonpayable",
      "type": "constructor"
    },
    {
      "anonymous": false,
      "inputs": [
        {
          "indexed": true,
          "internalType": "address",
          "name": "owner",
          "type": "address"
        },
        {
          "indexed": true,
          "internalType": "address",
          "name": "approved",
          "type": "address"
        },
        {
          "indexed": true,
          "internalType": "uint256",
          "name": "tokenId",
          "type": "uint256"
        }
      ],
      "name": "Approval",
      "type": "event"
    },
    {
      "anonymous": false,
      "inputs": [
        {
          "indexed": true,
          "internalType": "address",
          "name": "owner",
          "type": "address"
        },
        {
          "indexed": true,
          "internalType": "address",
          "name": "operator",
          "type": "address"
        },
        {
          "indexed": false,
          "internalType": "bool",
          "name": "approved",
          "type": "bool"
        }
      ],
      "name": "ApprovalForAll",
      "type": "event"
    },
    {
      "anonymous": false,
      "inputs": [
        {
          "indexed": true,
          "internalType": "address",
          "name": "previousOwner",
          "type": "address"
        },
        {
          "indexed": true,
          "internalType": "address",
          "name": "newOwner",
          "type": "address"
        }
      ],
      "name": "OwnershipTransferred",
      "type": "event"
    },
    {
      "anonymous": false,
      "inputs": [
        {
          "indexed": true,
          "internalType": "address",
          "name": "from",
          "type": "address"
        },
        {
          "indexed": true,
          "internalType": "address",
          "name": "to",
          "type": "address"
        },
        {
          "indexed": true,
          "internalType": "uint256",
          "name": "tokenId",
          "type": "uint256"
        }
      ],
      "name": "Transfer",
      "type": "event"
    },
    {
      "inputs": [
        {
          "internalType": "address",
          "name": "to",
          "type": "address"
        },
        {
          "internalType": "uint256",
          "name": "tokenId",
          "type": "uint256"
        }
      ],
      "name": "approve",
      "outputs": [],
      "stateMutability": "nonpayable",
      "type": "function"
    },
    {
      "inputs": [
        {
          "internalType": "address",
          "name": "owner",
          "type": "address"
        }
      ],
      "name": "balanceOf",
      "outputs": [
        {
          "internalType": "uint256",
          "name": "",
          "type": "uint256"
        }
      ],
      "stateMutability": "view",
      "type": "function",
      "constant": true
    },
    {
      "inputs": [
        {
          "internalType": "uint256",
          "name": "tokenId",
          "type": "uint256"
        }
      ],
      "name": "burn",
      "outputs": [],
      "stateMutability": "nonpayable",
      "type": "function"
    },
    {
      "inputs": [
        {
          "internalType": "uint256",
          "name": "tokenId",
          "type": "uint256"
        }
      ],
      "name": "getApproved",
      "outputs": [
        {
          "internalType": "address",
          "name": "",
          "type": "address"
        }
      ],
      "stateMutability": "view",
      "type": "function",
      "constant": true
    },
    {
      "inputs": [
        {
          "internalType": "address",
          "name": "owner",
          "type": "address"
        },
        {
          "internalType": "address",
          "name": "operator",
          "type": "address"
        }
      ],
      "name": "isApprovedForAll",
      "outputs": [
        {
          "internalType": "bool",
          "name": "",
          "type": "bool"
        }
      ],
      "stateMutability": "view",
      "type": "function",
      "constant": true
    },
    {
      "inputs": [],
      "name": "name",
      "outputs": [
        {
          "internalType": "string",
          "name": "",
          "type": "string"
        }
      ],
      "stateMutability": "view",
      "type": "function",
      "constant": true
    },
    {
      "inputs": [],
      "name": "owner",
      "outputs": [
        {
          "internalType": "address",
          "name": "",
          "type": "address"
        }
      ],
      "stateMutability": "view",
      "type": "function",
      "constant": true
    },
    {
      "inputs": [
        {
          "internalType": "uint256",
          "name": "tokenId",
          "type": "uint256"
        }
      ],
      "name": "ownerOf",
      "outputs": [
        {
          "internalType": "address",
          "name": "",
          "type": "address"
        }
      ],
      "stateMutability": "view",
      "type": "function",
      "constant": true
    },
    {
      "inputs": [],
      "name": "renounceOwnership",
      "outputs": [],
      "stateMutability": "nonpayable",
      "type": "function"
    },
    {
      "inputs": [
        {
          "internalType": "address",
          "name": "from",
          "type": "address"
        },
        {
          "internalType": "address",
          "name": "to",
          "type": "address"
        },
        {
          "internalType": "uint256",
          "name": "tokenId",
          "type": "uint256"
        }
      ],
      "name": "safeTransferFrom",
      "outputs": [],
      "stateMutability": "nonpayable",
      "type": "function"
    },
    {
      "inputs": [
        {
          "internalType": "address",
          "name": "from",
          "type": "address"
        },
        {
          "internalType": "address",
          "name": "to",
          "type": "address"
        },
        {
          "internalType": "uint256",
          "name": "tokenId",
          "type": "uint256"
        },
        {
          "internalType": "bytes",
          "name": "data",
          "type": "bytes"
        }
      ],
      "name": "safeTransferFrom",
      "outputs": [],
      "stateMutability": "nonpayable",
      "type": "function"
    },
    {
      "inputs": [
        {
          "internalType": "address",
          "name": "operator",
          "type": "address"
        },
        {
          "internalType": "bool",
          "name": "approved",
          "type": "bool"
        }
      ],
      "name": "setApprovalForAll",
      "outputs": [],
      "stateMutability": "nonpayable",
      "type": "function"
    },
    {
      "inputs": [],
      "name": "symbol",
      "outputs": [
        {
          "internalType": "string",
          "name": "",
          "type": "string"
        }
      ],
      "stateMutability": "view",
      "type": "function",
      "constant": true
    },
    {
      "inputs": [
        {
          "internalType": "uint256",
          "name": "index",
          "type": "uint256"
        }
      ],
      "name": "tokenByIndex",
      "outputs": [
        {
          "internalType": "uint256",
          "name": "",
          "type": "uint256"
        }
      ],
      "stateMutability": "view",
      "type": "function",
      "constant": true
    },
    {
      "inputs": [
        {
          "internalType": "address",
          "name": "owner",
          "type": "address"
        },
        {
          "internalType": "uint256",
          "name": "index",
          "type": "uint256"
        }
      ],
      "name": "tokenOfOwnerByIndex",
      "outputs": [
        {
          "internalType": "uint256",
          "name": "",
          "type": "uint256"
        }
      ],
      "stateMutability": "view",
      "type": "function",
      "constant": true
    },
    {
      "inputs": [],
      "name": "totalSupply",
      "outputs": [
        {
          "internalType": "uint256",
          "name": "",
          "type": "uint256"
        }
      ],
      "stateMutability": "view",
      "type": "function",
      "constant": true
    },
    {
      "inputs": [
        {
          "internalType": "address",
          "name": "from",
          "type": "address"
        },
        {
          "internalType": "address",
          "name": "to",
          "type": "address"
        },
        {
          "internalType": "uint256",
          "name": "tokenId",
          "type": "uint256"
        }
      ],
      "name": "transferFrom",
      "outputs": [],
      "stateMutability": "nonpayable",
      "type": "function"
    },
    {
      "inputs": [
        {
          "internalType": "address",
          "name": "newOwner",
          "type": "address"
        }
      ],
      "name": "transferOwnership",
      "outputs": [],
      "stateMutability": "nonpayable",
      "type": "function"
    },
    {
      "inputs": [
        {
          "internalType": "address",
          "name": "to",
          "type": "address"
        },
        {
          "internalType": "uint256",
          "name": "tokenId",
          "type": "uint256"
        },
        {
          "internalType": "string",
          "name": "uri",
          "type": "string"
        }
      ],
      "name": "safeMint",
      "outputs": [],
      "stateMutability": "payable",
      "type": "function",
      "payable": true
    },
    {
      "inputs": [],
      "name": "getPrice",
      "outputs": [
        {
          "internalType": "uint256",
          "name": "",
          "type": "uint256"
        }
      ],
      "stateMutability": "view",
      "type": "function",
      "constant": true
    },
    {
      "inputs": [
        {
          "internalType": "uint256",
          "name": "newPrice",
          "type": "uint256"
        }
      ],
      "name": "setPrice",
      "outputs": [],
      "stateMutability": "nonpayable",
      "type": "function"
    },
    {
      "inputs": [
        {
          "internalType": "uint256",
          "name": "tokenId",
          "type": "uint256"
        }
      ],
      "name": "tokenURI",
      "outputs": [
        {
          "internalType": "string",
          "name": "",
          "type": "string"
        }
      ],
      "stateMutability": "view",
      "type": "function",
      "constant": true
    },
    {
      "inputs": [
        {
          "internalType": "bytes4",
          "name": "interfaceId",
          "type": "bytes4"
        }
      ],
      "name": "supportsInterface",
      "outputs": [
        {
          "internalType": "bool",
          "name": "",
          "type": "bool"
        }
      ],
      "stateMutability": "view",
      "type": "function",
      "constant": true
    }
  ],
  "bytecode": "0x60806040523480156200001157600080fd5b506040516200418b3803806200418b833981810160405281019062000037919062000205565b6040518060400160405280600c81526020017f7361736b706f6c797465636800000000000000000000000000000000000000008152506040518060400160405280600381526020017f59515200000000000000000000000000000000000000000000000000000000008152508160009081620000b49190620004a7565b508060019081620000c69190620004a7565b505050620000e9620000dd620000f760201b60201c565b620000ff60201b60201c565b80600c81905550506200058e565b600033905090565b6000600b60009054906101000a900473ffffffffffffffffffffffffffffffffffffffff16905081600b60006101000a81548173ffffffffffffffffffffffffffffffffffffffff021916908373ffffffffffffffffffffffffffffffffffffffff1602179055508173ffffffffffffffffffffffffffffffffffffffff168173ffffffffffffffffffffffffffffffffffffffff167f8be0079c531659141344cd1fd0a4f28419497f9722a3daafe3b4186f6b6457e060405160405180910390a35050565b600080fd5b6000819050919050565b620001df81620001ca565b8114620001eb57600080fd5b50565b600081519050620001ff81620001d4565b92915050565b6000602082840312156200021e576200021d620001c5565b5b60006200022e84828501620001ee565b91505092915050565b600081519050919050565b7f4e487b7100000000000000000000000000000000000000000000000000000000600052604160045260246000fd5b7f4e487b7100000000000000000000000000000000000000000000000000000000600052602260045260246000fd5b60006002820490506001821680620002b957607f821691505b602082108103620002cf57620002ce62000271565b5b50919050565b60008190508160005260206000209050919050565b60006020601f8301049050919050565b600082821b905092915050565b600060088302620003397fffffffffffffffffffffffffffffffffffffffffffffffffffffffffffffffff82620002fa565b620003458683620002fa565b95508019841693508086168417925050509392505050565b6000819050919050565b600062000388620003826200037c84620001ca565b6200035d565b620001ca565b9050919050565b6000819050919050565b620003a48362000367565b620003bc620003b3826200038f565b84845462000307565b825550505050565b600090565b620003d3620003c4565b620003e081848462000399565b505050565b5b818110156200040857620003fc600082620003c9565b600181019050620003e6565b5050565b601f82111562000457576200042181620002d5565b6200042c84620002ea565b810160208510156200043c578190505b620004546200044b85620002ea565b830182620003e5565b50505b505050565b600082821c905092915050565b60006200047c600019846008026200045c565b1980831691505092915050565b600062000497838362000469565b9150826002028217905092915050565b620004b28262000237565b67ffffffffffffffff811115620004ce57620004cd62000242565b5b620004da8254620002a0565b620004e78282856200040c565b600060209050601f8311600181146200051f57600084156200050a578287015190505b62000516858262000489565b86555062000586565b601f1984166200052f86620002d5565b60005b82811015620005595784890151825560018201915060208501945060208101905062000532565b8683101562000579578489015162000575601f89168262000469565b8355505b6001600288020188555050505b505050505050565b613bed806200059e6000396000f3fe6080604052600436106101405760003560e01c806370a08231116100b6578063a22cb4651161006f578063a22cb4651461046e578063b88d4fde14610497578063c87b56dd146104c0578063cd279c7c146104fd578063e985e9c514610519578063f2fde38b1461055657610140565b806370a0823114610370578063715018a6146103ad5780638da5cb5b146103c457806391b7f5ed146103ef57806395d89b411461041857806398d5fdca1461044357610140565b806323b872dd1161010857806323b872dd1461023e5780632f745c591461026757806342842e0e146102a457806342966c68146102cd5780634f6ccce7146102f65780636352211e1461033357610140565b806301ffc9a71461014557806306fdde0314610182578063081812fc146101ad578063095ea7b3146101ea57806318160ddd14610213575b600080fd5b34801561015157600080fd5b5061016c600480360381019061016791906126e8565b61057f565b6040516101799190612730565b60405180910390f35b34801561018e57600080fd5b50610197610591565b6040516101a491906127db565b60405180910390f35b3480156101b957600080fd5b506101d460048036038101906101cf9190612833565b610623565b6040516101e191906128a1565b60405180910390f35b3480156101f657600080fd5b50610211600480360381019061020c91906128e8565b610669565b005b34801561021f57600080fd5b50610228610780565b6040516102359190612937565b60405180910390f35b34801561024a57600080fd5b5061026560048036038101906102609190612952565b61078d565b005b34801561027357600080fd5b5061028e600480360381019061028991906128e8565b6107ed565b60405161029b9190612937565b60405180910390f35b3480156102b057600080fd5b506102cb60048036038101906102c69190612952565b610892565b005b3480156102d957600080fd5b506102f460048036038101906102ef9190612833565b6108b2565b005b34801561030257600080fd5b5061031d60048036038101906103189190612833565b61090e565b60405161032a9190612937565b60405180910390f35b34801561033f57600080fd5b5061035a60048036038101906103559190612833565b61097f565b60405161036791906128a1565b60405180910390f35b34801561037c57600080fd5b50610397600480360381019061039291906129a5565b610a05565b6040516103a49190612937565b60405180910390f35b3480156103b957600080fd5b506103c2610abc565b005b3480156103d057600080fd5b506103d9610ad0565b6040516103e691906128a1565b60405180910390f35b3480156103fb57600080fd5b5061041660048036038101906104119190612833565b610afa565b005b34801561042457600080fd5b5061042d610b0c565b60405161043a91906127db565b60405180910390f35b34801561044f57600080fd5b50610458610b9e565b6040516104659190612937565b60405180910390f35b34801561047a57600080fd5b50610495600480360381019061049091906129fe565b610ba8565b005b3480156104a357600080fd5b506104be60048036038101906104b99190612b73565b610bbe565b005b3480156104cc57600080fd5b506104e760048036038101906104e29190612833565b610c20565b6040516104f491906127db565b60405180910390f35b61051760048036038101906105129190612c97565b610c32565b005b34801561052557600080fd5b50610540600480360381019061053b9190612d06565b610c90565b60405161054d9190612730565b60405180910390f35b34801561056257600080fd5b5061057d600480360381019061057891906129a5565b610d24565b005b600061058a82610da7565b9050919050565b6060600080546105a090612d75565b80601f01602080910402602001604051908101604052809291908181526020018280546105cc90612d75565b80156106195780601f106105ee57610100808354040283529160200191610619565b820191906000526020600020905b8154815290600101906020018083116105fc57829003601f168201915b5050505050905090565b600061062e82610e21565b6004600083815260200190815260200160002060009054906101000a900473ffffffffffffffffffffffffffffffffffffffff169050919050565b60006106748261097f565b90508073ffffffffffffffffffffffffffffffffffffffff168373ffffffffffffffffffffffffffffffffffffffff16036106e4576040517f08c379a00000000000000000000000000000000000000000000000000000000081526004016106db90612e18565b60405180910390fd5b8073ffffffffffffffffffffffffffffffffffffffff16610703610e6c565b73ffffffffffffffffffffffffffffffffffffffff16148061073257506107318161072c610e6c565b610c90565b5b610771576040517f08c379a000000000000000000000000000000000000000000000000000000000815260040161076890612eaa565b60405180910390fd5b61077b8383610e74565b505050565b6000600880549050905090565b61079e610798610e6c565b82610f2d565b6107dd576040517f08c379a00000000000000000000000000000000000000000000000000000000081526004016107d490612f3c565b60405180910390fd5b6107e8838383610fc2565b505050565b60006107f883610a05565b8210610839576040517f08c379a000000000000000000000000000000000000000000000000000000000815260040161083090612fce565b60405180910390fd5b600660008473ffffffffffffffffffffffffffffffffffffffff1673ffffffffffffffffffffffffffffffffffffffff168152602001908152602001600020600083815260200190815260200160002054905092915050565b6108ad83838360405180602001604052806000815250610bbe565b505050565b6108c36108bd610e6c565b82610f2d565b610902576040517f08c379a00000000000000000000000000000000000000000000000000000000081526004016108f990612f3c565b60405180910390fd5b61090b816112bb565b50565b6000610918610780565b8210610959576040517f08c379a000000000000000000000000000000000000000000000000000000000815260040161095090613060565b60405180910390fd5b6008828154811061096d5761096c613080565b5b90600052602060002001549050919050565b60008061098b836112c7565b9050600073ffffffffffffffffffffffffffffffffffffffff168173ffffffffffffffffffffffffffffffffffffffff16036109fc576040517f08c379a00000000000000000000000000000000000000000000000000000000081526004016109f3906130fb565b60405180910390fd5b80915050919050565b60008073ffffffffffffffffffffffffffffffffffffffff168273ffffffffffffffffffffffffffffffffffffffff1603610a75576040517f08c379a0000000000000000000000000000000000000000000000000000000008152600401610a6c9061318d565b60405180910390fd5b600360008373ffffffffffffffffffffffffffffffffffffffff1673ffffffffffffffffffffffffffffffffffffffff168152602001908152602001600020549050919050565b610ac4611304565b610ace6000611382565b565b6000600b60009054906101000a900473ffffffffffffffffffffffffffffffffffffffff16905090565b610b02611304565b80600c8190555050565b606060018054610b1b90612d75565b80601f0160208091040260200160405190810160405280929190818152602001828054610b4790612d75565b8015610b945780601f10610b6957610100808354040283529160200191610b94565b820191906000526020600020905b815481529060010190602001808311610b7757829003601f168201915b5050505050905090565b6000600c54905090565b610bba610bb3610e6c565b8383611448565b5050565b610bcf610bc9610e6c565b83610f2d565b610c0e576040517f08c379a0000000000000000000000000000000000000000000000000000000008152600401610c0590612f3c565b60405180910390fd5b610c1a848484846115b4565b50505050565b6060610c2b82611610565b9050919050565b600c54341015610c77576040517f08c379a0000000000000000000000000000000000000000000000000000000008152600401610c6e906131f9565b60405180910390fd5b610c818383611722565b610c8b8282611740565b505050565b6000600560008473ffffffffffffffffffffffffffffffffffffffff1673ffffffffffffffffffffffffffffffffffffffff16815260200190815260200160002060008373ffffffffffffffffffffffffffffffffffffffff1673ffffffffffffffffffffffffffffffffffffffff16815260200190815260200160002060009054906101000a900460ff16905092915050565b610d2c611304565b600073ffffffffffffffffffffffffffffffffffffffff168173ffffffffffffffffffffffffffffffffffffffff1603610d9b576040517f08c379a0000000000000000000000000000000000000000000000000000000008152600401610d929061328b565b60405180910390fd5b610da481611382565b50565b60007f780e9d63000000000000000000000000000000000000000000000000000000007bffffffffffffffffffffffffffffffffffffffffffffffffffffffff1916827bffffffffffffffffffffffffffffffffffffffffffffffffffffffff19161480610e1a5750610e19826117ad565b5b9050919050565b610e2a8161188f565b610e69576040517f08c379a0000000000000000000000000000000000000000000000000000000008152600401610e60906130fb565b60405180910390fd5b50565b600033905090565b816004600083815260200190815260200160002060006101000a81548173ffffffffffffffffffffffffffffffffffffffff021916908373ffffffffffffffffffffffffffffffffffffffff160217905550808273ffffffffffffffffffffffffffffffffffffffff16610ee78361097f565b73ffffffffffffffffffffffffffffffffffffffff167f8c5be1e5ebec7d5bd14f71427d1e84f3dd0314c0f7b2291e5b200ac8c7c3b92560405160405180910390a45050565b600080610f398361097f565b90508073ffffffffffffffffffffffffffffffffffffffff168473ffffffffffffffffffffffffffffffffffffffff161480610f7b5750610f7a8185610c90565b5b80610fb957508373ffffffffffffffffffffffffffffffffffffffff16610fa184610623565b73ffffffffffffffffffffffffffffffffffffffff16145b91505092915050565b8273ffffffffffffffffffffffffffffffffffffffff16610fe28261097f565b73ffffffffffffffffffffffffffffffffffffffff1614611038576040517f08c379a000000000000000000000000000000000000000000000000000000000815260040161102f9061331d565b60405180910390fd5b600073ffffffffffffffffffffffffffffffffffffffff168273ffffffffffffffffffffffffffffffffffffffff16036110a7576040517f08c379a000000000000000000000000000000000000000000000000000000000815260040161109e906133af565b60405180910390fd5b6110b483838360016118d0565b8273ffffffffffffffffffffffffffffffffffffffff166110d48261097f565b73ffffffffffffffffffffffffffffffffffffffff161461112a576040517f08c379a00000000000000000000000000000000000000000000000000000000081526004016111219061331d565b60405180910390fd5b6004600082815260200190815260200160002060006101000a81549073ffffffffffffffffffffffffffffffffffffffff02191690556001600360008573ffffffffffffffffffffffffffffffffffffffff1673ffffffffffffffffffffffffffffffffffffffff168152602001908152602001600020600082825403925050819055506001600360008473ffffffffffffffffffffffffffffffffffffffff1673ffffffffffffffffffffffffffffffffffffffff16815260200190815260200160002060008282540192505081905550816002600083815260200190815260200160002060006101000a81548173ffffffffffffffffffffffffffffffffffffffff021916908373ffffffffffffffffffffffffffffffffffffffff160217905550808273ffffffffffffffffffffffffffffffffffffffff168473ffffffffffffffffffffffffffffffffffffffff167fddf252ad1be2c89b69c2b068fc378daa952ba7f163c4a11628f55a4df523b3ef60405160405180910390a46112b683838360016118e2565b505050565b6112c4816118e8565b50565b60006002600083815260200190815260200160002060009054906101000a900473ffffffffffffffffffffffffffffffffffffffff169050919050565b61130c610e6c565b73ffffffffffffffffffffffffffffffffffffffff1661132a610ad0565b73ffffffffffffffffffffffffffffffffffffffff1614611380576040517f08c379a00000000000000000000000000000000000000000000000000000000081526004016113779061341b565b60405180910390fd5b565b6000600b60009054906101000a900473ffffffffffffffffffffffffffffffffffffffff16905081600b60006101000a81548173ffffffffffffffffffffffffffffffffffffffff021916908373ffffffffffffffffffffffffffffffffffffffff1602179055508173ffffffffffffffffffffffffffffffffffffffff168173ffffffffffffffffffffffffffffffffffffffff167f8be0079c531659141344cd1fd0a4f28419497f9722a3daafe3b4186f6b6457e060405160405180910390a35050565b8173ffffffffffffffffffffffffffffffffffffffff168373ffffffffffffffffffffffffffffffffffffffff16036114b6576040517f08c379a00000000000000000000000000000000000000000000000000000000081526004016114ad90613487565b60405180910390fd5b80600560008573ffffffffffffffffffffffffffffffffffffffff1673ffffffffffffffffffffffffffffffffffffffff16815260200190815260200160002060008473ffffffffffffffffffffffffffffffffffffffff1673ffffffffffffffffffffffffffffffffffffffff16815260200190815260200160002060006101000a81548160ff0219169083151502179055508173ffffffffffffffffffffffffffffffffffffffff168373ffffffffffffffffffffffffffffffffffffffff167f17307eab39ab6107e8899845ad3d59bd9653f200f220920489ca2b5937696c31836040516115a79190612730565b60405180910390a3505050565b6115bf848484610fc2565b6115cb8484848461193b565b61160a576040517f08c379a000000000000000000000000000000000000000000000000000000000815260040161160190613519565b60405180910390fd5b50505050565b606061161b82610e21565b6000600a6000848152602001908152602001600020805461163b90612d75565b80601f016020809104026020016040519081016040528092919081815260200182805461166790612d75565b80156116b45780601f10611689576101008083540402835291602001916116b4565b820191906000526020600020905b81548152906001019060200180831161169757829003601f168201915b5050505050905060006116c5611ac2565b905060008151036116da57819250505061171d565b60008251111561170f5780826040516020016116f7929190613575565b6040516020818303038152906040529250505061171d565b61171884611ad9565b925050505b919050565b61173c828260405180602001604052806000815250611b41565b5050565b6117498261188f565b611788576040517f08c379a000000000000000000000000000000000000000000000000000000000815260040161177f9061360b565b60405180910390fd5b80600a600084815260200190815260200160002090816117a891906137d7565b505050565b60007f80ac58cd000000000000000000000000000000000000000000000000000000007bffffffffffffffffffffffffffffffffffffffffffffffffffffffff1916827bffffffffffffffffffffffffffffffffffffffffffffffffffffffff1916148061187857507f5b5e139f000000000000000000000000000000000000000000000000000000007bffffffffffffffffffffffffffffffffffffffffffffffffffffffff1916827bffffffffffffffffffffffffffffffffffffffffffffffffffffffff1916145b80611888575061188782611b9c565b5b9050919050565b60008073ffffffffffffffffffffffffffffffffffffffff166118b1836112c7565b73ffffffffffffffffffffffffffffffffffffffff1614159050919050565b6118dc84848484611c06565b50505050565b50505050565b6118f181611d64565b6000600a6000838152602001908152602001600020805461191190612d75565b90501461193857600a60008281526020019081526020016000206000611937919061261f565b5b50565b600061195c8473ffffffffffffffffffffffffffffffffffffffff16611eb2565b15611ab5578373ffffffffffffffffffffffffffffffffffffffff1663150b7a02611985610e6c565b8786866040518563ffffffff1660e01b81526004016119a794939291906138fe565b6020604051808303816000875af19250505080156119e357506040513d601f19601f820116820180604052508101906119e0919061395f565b60015b611a65573d8060008114611a13576040519150601f19603f3d011682016040523d82523d6000602084013e611a18565b606091505b506000815103611a5d576040517f08c379a0000000000000000000000000000000000000000000000000000000008152600401611a5490613519565b60405180910390fd5b805181602001fd5b63150b7a0260e01b7bffffffffffffffffffffffffffffffffffffffffffffffffffffffff1916817bffffffffffffffffffffffffffffffffffffffffffffffffffffffff191614915050611aba565b600190505b949350505050565b606060405180602001604052806000815250905090565b6060611ae482610e21565b6000611aee611ac2565b90506000815111611b0e5760405180602001604052806000815250611b39565b80611b1884611ed5565b604051602001611b29929190613575565b6040516020818303038152906040525b915050919050565b611b4b8383611fa3565b611b58600084848461193b565b611b97576040517f08c379a0000000000000000000000000000000000000000000000000000000008152600401611b8e90613519565b60405180910390fd5b505050565b60007f01ffc9a7000000000000000000000000000000000000000000000000000000007bffffffffffffffffffffffffffffffffffffffffffffffffffffffff1916827bffffffffffffffffffffffffffffffffffffffffffffffffffffffff1916149050919050565b611c12848484846121c0565b6001811115611c56576040517f08c379a0000000000000000000000000000000000000000000000000000000008152600401611c4d906139fe565b60405180910390fd5b6000829050600073ffffffffffffffffffffffffffffffffffffffff168573ffffffffffffffffffffffffffffffffffffffff1603611c9d57611c98816121c6565b611cdc565b8373ffffffffffffffffffffffffffffffffffffffff168573ffffffffffffffffffffffffffffffffffffffff1614611cdb57611cda858261220f565b5b5b600073ffffffffffffffffffffffffffffffffffffffff168473ffffffffffffffffffffffffffffffffffffffff1603611d1e57611d198161237c565b611d5d565b8473ffffffffffffffffffffffffffffffffffffffff168473ffffffffffffffffffffffffffffffffffffffff1614611d5c57611d5b848261244d565b5b5b5050505050565b6000611d6f8261097f565b9050611d7f8160008460016118d0565b611d888261097f565b90506004600083815260200190815260200160002060006101000a81549073ffffffffffffffffffffffffffffffffffffffff02191690556001600360008373ffffffffffffffffffffffffffffffffffffffff1673ffffffffffffffffffffffffffffffffffffffff168152602001908152602001600020600082825403925050819055506002600083815260200190815260200160002060006101000a81549073ffffffffffffffffffffffffffffffffffffffff021916905581600073ffffffffffffffffffffffffffffffffffffffff168273ffffffffffffffffffffffffffffffffffffffff167fddf252ad1be2c89b69c2b068fc378daa952ba7f163c4a11628f55a4df523b3ef60405160405180910390a4611eae8160008460016118e2565b5050565b6000808273ffffffffffffffffffffffffffffffffffffffff163b119050919050565b606060006001611ee4846124cc565b01905060008167ffffffffffffffff811115611f0357611f02612a48565b5b6040519080825280601f01601f191660200182016040528015611f355781602001600182028036833780820191505090505b509050600082602001820190505b600115611f98578080600190039150507f3031323334353637383961626364656600000000000000000000000000000000600a86061a8153600a8581611f8c57611f8b613a1e565b5b04945060008503611f43575b819350505050919050565b600073ffffffffffffffffffffffffffffffffffffffff168273ffffffffffffffffffffffffffffffffffffffff1603612012576040517f08c379a000000000000000000000000000000000000000000000000000000000815260040161200990613a99565b60405180910390fd5b61201b8161188f565b1561205b576040517f08c379a000000000000000000000000000000000000000000000000000000000815260040161205290613b05565b60405180910390fd5b6120696000838360016118d0565b6120728161188f565b156120b2576040517f08c379a00000000000000000000000000000000000000000000000000000000081526004016120a990613b05565b60405180910390fd5b6001600360008473ffffffffffffffffffffffffffffffffffffffff1673ffffffffffffffffffffffffffffffffffffffff16815260200190815260200160002060008282540192505081905550816002600083815260200190815260200160002060006101000a81548173ffffffffffffffffffffffffffffffffffffffff021916908373ffffffffffffffffffffffffffffffffffffffff160217905550808273ffffffffffffffffffffffffffffffffffffffff16600073ffffffffffffffffffffffffffffffffffffffff167fddf252ad1be2c89b69c2b068fc378daa952ba7f163c4a11628f55a4df523b3ef60405160405180910390a46121bc6000838360016118e2565b5050565b50505050565b6008805490506009600083815260200190815260200160002081905550600881908060018154018082558091505060019003906000526020600020016000909190919091505550565b6000600161221c84610a05565b6122269190613b54565b905060006007600084815260200190815260200160002054905081811461230b576000600660008673ffffffffffffffffffffffffffffffffffffffff1673ffffffffffffffffffffffffffffffffffffffff168152602001908152602001600020600084815260200190815260200160002054905080600660008773ffffffffffffffffffffffffffffffffffffffff1673ffffffffffffffffffffffffffffffffffffffff168152602001908152602001600020600084815260200190815260200160002081905550816007600083815260200190815260200160002081905550505b6007600084815260200190815260200160002060009055600660008573ffffffffffffffffffffffffffffffffffffffff1673ffffffffffffffffffffffffffffffffffffffff16815260200190815260200160002060008381526020019081526020016000206000905550505050565b600060016008805490506123909190613b54565b90506000600960008481526020019081526020016000205490506000600883815481106123c0576123bf613080565b5b9060005260206000200154905080600883815481106123e2576123e1613080565b5b90600052602060002001819055508160096000838152602001908152602001600020819055506009600085815260200190815260200160002060009055600880548061243157612430613b88565b5b6001900381819060005260206000200160009055905550505050565b600061245883610a05565b905081600660008573ffffffffffffffffffffffffffffffffffffffff1673ffffffffffffffffffffffffffffffffffffffff168152602001908152602001600020600083815260200190815260200160002081905550806007600084815260200190815260200160002081905550505050565b600080600090507a184f03e93ff9f4daa797ed6e38ed64bf6a1f010000000000000000831061252a577a184f03e93ff9f4daa797ed6e38ed64bf6a1f01000000000000000083816125205761251f613a1e565b5b0492506040810190505b6d04ee2d6d415b85acef81000000008310612567576d04ee2d6d415b85acef8100000000838161255d5761255c613a1e565b5b0492506020810190505b662386f26fc10000831061259657662386f26fc10000838161258c5761258b613a1e565b5b0492506010810190505b6305f5e10083106125bf576305f5e10083816125b5576125b4613a1e565b5b0492506008810190505b61271083106125e45761271083816125da576125d9613a1e565b5b0492506004810190505b6064831061260757606483816125fd576125fc613a1e565b5b0492506002810190505b600a8310612616576001810190505b80915050919050565b50805461262b90612d75565b6000825580601f1061263d575061265c565b601f01602090049060005260206000209081019061265b919061265f565b5b50565b5b80821115612678576000816000905550600101612660565b5090565b6000604051905090565b600080fd5b600080fd5b60007fffffffff0000000000000000000000000000000000000000000000000000000082169050919050565b6126c581612690565b81146126d057600080fd5b50565b6000813590506126e2816126bc565b92915050565b6000602082840312156126fe576126fd612686565b5b600061270c848285016126d3565b91505092915050565b60008115159050919050565b61272a81612715565b82525050565b60006020820190506127456000830184612721565b92915050565b600081519050919050565b600082825260208201905092915050565b60005b8381101561278557808201518184015260208101905061276a565b60008484015250505050565b6000601f19601f8301169050919050565b60006127ad8261274b565b6127b78185612756565b93506127c7818560208601612767565b6127d081612791565b840191505092915050565b600060208201905081810360008301526127f581846127a2565b905092915050565b6000819050919050565b612810816127fd565b811461281b57600080fd5b50565b60008135905061282d81612807565b92915050565b60006020828403121561284957612848612686565b5b60006128578482850161281e565b91505092915050565b600073ffffffffffffffffffffffffffffffffffffffff82169050919050565b600061288b82612860565b9050919050565b61289b81612880565b82525050565b60006020820190506128b66000830184612892565b92915050565b6128c581612880565b81146128d057600080fd5b50565b6000813590506128e2816128bc565b92915050565b600080604083850312156128ff576128fe612686565b5b600061290d858286016128d3565b925050602061291e8582860161281e565b9150509250929050565b612931816127fd565b82525050565b600060208201905061294c6000830184612928565b92915050565b60008060006060848603121561296b5761296a612686565b5b6000612979868287016128d3565b935050602061298a868287016128d3565b925050604061299b8682870161281e565b9150509250925092565b6000602082840312156129bb576129ba612686565b5b60006129c9848285016128d3565b91505092915050565b6129db81612715565b81146129e657600080fd5b50565b6000813590506129f8816129d2565b92915050565b60008060408385031215612a1557612a14612686565b5b6000612a23858286016128d3565b9250506020612a34858286016129e9565b9150509250929050565b600080fd5b600080fd5b7f4e487b7100000000000000000000000000000000000000000000000000000000600052604160045260246000fd5b612a8082612791565b810181811067ffffffffffffffff82111715612a9f57612a9e612a48565b5b80604052505050565b6000612ab261267c565b9050612abe8282612a77565b919050565b600067ffffffffffffffff821115612ade57612add612a48565b5b612ae782612791565b9050602081019050919050565b82818337600083830152505050565b6000612b16612b1184612ac3565b612aa8565b905082815260208101848484011115612b3257612b31612a43565b5b612b3d848285612af4565b509392505050565b600082601f830112612b5a57612b59612a3e565b5b8135612b6a848260208601612b03565b91505092915050565b60008060008060808587031215612b8d57612b8c612686565b5b6000612b9b878288016128d3565b9450506020612bac878288016128d3565b9350506040612bbd8782880161281e565b925050606085013567ffffffffffffffff811115612bde57612bdd61268b565b5b612bea87828801612b45565b91505092959194509250565b600067ffffffffffffffff821115612c1157612c10612a48565b5b612c1a82612791565b9050602081019050919050565b6000612c3a612c3584612bf6565b612aa8565b905082815260208101848484011115612c5657612c55612a43565b5b612c61848285612af4565b509392505050565b600082601f830112612c7e57612c7d612a3e565b5b8135612c8e848260208601612c27565b91505092915050565b600080600060608486031215612cb057612caf612686565b5b6000612cbe868287016128d3565b9350506020612ccf8682870161281e565b925050604084013567ffffffffffffffff811115612cf057612cef61268b565b5b612cfc86828701612c69565b9150509250925092565b60008060408385031215612d1d57612d1c612686565b5b6000612d2b858286016128d3565b9250506020612d3c858286016128d3565b9150509250929050565b7f4e487b7100000000000000000000000000000000000000000000000000000000600052602260045260246000fd5b60006002820490506001821680612d8d57607f821691505b602082108103612da057612d9f612d46565b5b50919050565b7f4552433732313a20617070726f76616c20746f2063757272656e74206f776e6560008201527f7200000000000000000000000000000000000000000000000000000000000000602082015250565b6000612e02602183612756565b9150612e0d82612da6565b604082019050919050565b60006020820190508181036000830152612e3181612df5565b9050919050565b7f4552433732313a20617070726f76652063616c6c6572206973206e6f7420746f60008201527f6b656e206f776e6572206f7220617070726f76656420666f7220616c6c000000602082015250565b6000612e94603d83612756565b9150612e9f82612e38565b604082019050919050565b60006020820190508181036000830152612ec381612e87565b9050919050565b7f4552433732313a2063616c6c6572206973206e6f7420746f6b656e206f776e6560008201527f72206f7220617070726f76656400000000000000000000000000000000000000602082015250565b6000612f26602d83612756565b9150612f3182612eca565b604082019050919050565b60006020820190508181036000830152612f5581612f19565b9050919050565b7f455243373231456e756d657261626c653a206f776e657220696e646578206f7560008201527f74206f6620626f756e6473000000000000000000000000000000000000000000602082015250565b6000612fb8602b83612756565b9150612fc382612f5c565b604082019050919050565b60006020820190508181036000830152612fe781612fab565b9050919050565b7f455243373231456e756d657261626c653a20676c6f62616c20696e646578206f60008201527f7574206f6620626f756e64730000000000000000000000000000000000000000602082015250565b600061304a602c83612756565b915061305582612fee565b604082019050919050565b600060208201905081810360008301526130798161303d565b9050919050565b7f4e487b7100000000000000000000000000000000000000000000000000000000600052603260045260246000fd5b7f4552433732313a20696e76616c696420746f6b656e2049440000000000000000600082015250565b60006130e5601883612756565b91506130f0826130af565b602082019050919050565b60006020820190508181036000830152613114816130d8565b9050919050565b7f4552433732313a2061646472657373207a65726f206973206e6f74206120766160008201527f6c6964206f776e65720000000000000000000000000000000000000000000000602082015250565b6000613177602983612756565b91506131828261311b565b604082019050919050565b600060208201905081810360008301526131a68161316a565b9050919050565b7f4e6f7420656e6f75676820455448000000000000000000000000000000000000600082015250565b60006131e3600e83612756565b91506131ee826131ad565b602082019050919050565b60006020820190508181036000830152613212816131d6565b9050919050565b7f4f776e61626c653a206e6577206f776e657220697320746865207a65726f206160008201527f6464726573730000000000000000000000000000000000000000000000000000602082015250565b6000613275602683612756565b915061328082613219565b604082019050919050565b600060208201905081810360008301526132a481613268565b9050919050565b7f4552433732313a207472616e736665722066726f6d20696e636f72726563742060008201527f6f776e6572000000000000000000000000000000000000000000000000000000602082015250565b6000613307602583612756565b9150613312826132ab565b604082019050919050565b60006020820190508181036000830152613336816132fa565b9050919050565b7f4552433732313a207472616e7366657220746f20746865207a65726f2061646460008201527f7265737300000000000000000000000000000000000000000000000000000000602082015250565b6000613399602483612756565b91506133a48261333d565b604082019050919050565b600060208201905081810360008301526133c88161338c565b9050919050565b7f4f776e61626c653a2063616c6c6572206973206e6f7420746865206f776e6572600082015250565b6000613405602083612756565b9150613410826133cf565b602082019050919050565b60006020820190508181036000830152613434816133f8565b9050919050565b7f4552433732313a20617070726f766520746f2063616c6c657200000000000000600082015250565b6000613471601983612756565b915061347c8261343b565b602082019050919050565b600060208201905081810360008301526134a081613464565b9050919050565b7f4552433732313a207472616e7366657220746f206e6f6e20455243373231526560008201527f63656976657220696d706c656d656e7465720000000000000000000000000000602082015250565b6000613503603283612756565b915061350e826134a7565b604082019050919050565b60006020820190508181036000830152613532816134f6565b9050919050565b600081905092915050565b600061354f8261274b565b6135598185613539565b9350613569818560208601612767565b80840191505092915050565b60006135818285613544565b915061358d8284613544565b91508190509392505050565b7f45524337323155524953746f726167653a2055524920736574206f66206e6f6e60008201527f6578697374656e7420746f6b656e000000000000000000000000000000000000602082015250565b60006135f5602e83612756565b915061360082613599565b604082019050919050565b60006020820190508181036000830152613624816135e8565b9050919050565b60008190508160005260206000209050919050565b60006020601f8301049050919050565b600082821b905092915050565b60006008830261368d7fffffffffffffffffffffffffffffffffffffffffffffffffffffffffffffffff82613650565b6136978683613650565b95508019841693508086168417925050509392505050565b6000819050919050565b60006136d46136cf6136ca846127fd565b6136af565b6127fd565b9050919050565b6000819050919050565b6136ee836136b9565b6137026136fa826136db565b84845461365d565b825550505050565b600090565b61371761370a565b6137228184846136e5565b505050565b5b818110156137465761373b60008261370f565b600181019050613728565b5050565b601f82111561378b5761375c8161362b565b61376584613640565b81016020851015613774578190505b61378861378085613640565b830182613727565b50505b505050565b600082821c905092915050565b60006137ae60001984600802613790565b1980831691505092915050565b60006137c7838361379d565b9150826002028217905092915050565b6137e08261274b565b67ffffffffffffffff8111156137f9576137f8612a48565b5b6138038254612d75565b61380e82828561374a565b600060209050601f831160018114613841576000841561382f578287015190505b61383985826137bb565b8655506138a1565b601f19841661384f8661362b565b60005b8281101561387757848901518255600182019150602085019450602081019050613852565b868310156138945784890151613890601f89168261379d565b8355505b6001600288020188555050505b505050505050565b600081519050919050565b600082825260208201905092915050565b60006138d0826138a9565b6138da81856138b4565b93506138ea818560208601612767565b6138f381612791565b840191505092915050565b60006080820190506139136000830187612892565b6139206020830186612892565b61392d6040830185612928565b818103606083015261393f81846138c5565b905095945050505050565b600081519050613959816126bc565b92915050565b60006020828403121561397557613974612686565b5b60006139838482850161394a565b91505092915050565b7f455243373231456e756d657261626c653a20636f6e736563757469766520747260008201527f616e7366657273206e6f7420737570706f727465640000000000000000000000602082015250565b60006139e8603583612756565b91506139f38261398c565b604082019050919050565b60006020820190508181036000830152613a17816139db565b9050919050565b7f4e487b7100000000000000000000000000000000000000000000000000000000600052601260045260246000fd5b7f4552433732313a206d696e7420746f20746865207a65726f2061646472657373600082015250565b6000613a83602083612756565b9150613a8e82613a4d565b602082019050919050565b60006020820190508181036000830152613ab281613a76565b9050919050565b7f4552433732313a20746f6b656e20616c7265616479206d696e74656400000000600082015250565b6000613aef601c83612756565b9150613afa82613ab9565b602082019050919050565b60006020820190508181036000830152613b1e81613ae2565b9050919050565b7f4e487b7100000000000000000000000000000000000000000000000000000000600052601160045260246000fd5b6000613b5f826127fd565b9150613b6a836127fd565b9250828203905081811115613b8257613b81613b25565b5b92915050565b7f4e487b7100000000000000000000000000000000000000000000000000000000600052603160045260246000fdfea2646970667358221220bebca29a147cfdf5e0456f18916c4ee518e7167dd2cbefaa0e8499e37a014fed64736f6c63430008120033",
  "immutableReferences": {},
  "source": "// Developers: \n// - @danish - 000508255\n// - @maryam - 000516079\n\n// SPDX-License-Identifier: MIT\npragma solidity ^0.8.9;\n\nimport \"@openzeppelin/contracts/token/ERC721/ERC721.sol\";\nimport \"@openzeppelin/contracts/token/ERC721/extensions/ERC721Enumerable.sol\";\nimport \"@openzeppelin/contracts/token/ERC721/extensions/ERC721URIStorage.sol\";\nimport \"@openzeppelin/contracts/token/ERC721/extensions/ERC721Burnable.sol\";\nimport \"@openzeppelin/contracts/access/Ownable.sol\";\n\ncontract Saskpolytech is ERC721, ERC721Enumerable, ERC721URIStorage, ERC721Burnable, Ownable {\n    // price of NFT token\n    uint private price;\n\n    // sets price of NFT\n    constructor(uint newPrice) ERC721(\"saskpolytech\", \"YQR\") {\n        price = newPrice;\n    }\n\n    // Mints NFT token\n    function safeMint(address to, uint256 tokenId, string memory uri)\n        public\n        payable\n    {\n        require(msg.value >= price, \"Not enough ETH\");\n\n        _safeMint(to, tokenId);\n        _setTokenURI(tokenId, uri);\n    }\n\n\n    // gets price of NFT token\n    function getPrice () public view returns (uint) {\n        return price;\n    }\n\n    // owner sets price of NFT token\n    function setPrice (uint newPrice) public onlyOwner {\n        price = newPrice;\n    }\n\n    // The following functions are overrides required by Solidity.\n    function _beforeTokenTransfer(address from, address to, uint256 tokenId, uint256 batchSize)\n        internal\n        override(ERC721, ERC721Enumerable)\n    {\n        super._beforeTokenTransfer(from, to, tokenId, batchSize);\n    }\n\n    // used to burn NFT token\n    function _burn(uint256 tokenId) internal override(ERC721, ERC721URIStorage) {\n        super._burn(tokenId);\n    }\n\n    // used to get token URI\n    function tokenURI(uint256 tokenId)\n        public\n        view\n        override(ERC721, ERC721URIStorage)\n        returns (string memory)\n    {\n        return super.tokenURI(tokenId);\n    }\n\n    function supportsInterface(bytes4 interfaceId)\n        public\n        view\n        override(ERC721, ERC721Enumerable)\n        returns (bool)\n    {\n        return super.supportsInterface(interfaceId);\n    }\n}",
  "sourcePath": "/Users/danishyasin/Documents/Personal/Canada/CC&BC-PG-CERT/sem-1/smart-contracts/nft-contract-project/nft/contracts/Saskpolytech.sol",
  "compiler": {
    "name": "solc",
    "version": "0.8.18+commit.87f61d96.Emscripten.clang"
  },
  "schemaVersion": "3.4.12",
  "updatedAt": "2023-04-16T22:49:16.699Z",
  "networkType": "ethereum",
  "devdoc": {
    "events": {
      "Approval(address,address,uint256)": {
        "details": "Emitted when `owner` enables `approved` to manage the `tokenId` token."
      },
      "ApprovalForAll(address,address,bool)": {
        "details": "Emitted when `owner` enables or disables (`approved`) `operator` to manage all of its assets."
      },
      "Transfer(address,address,uint256)": {
        "details": "Emitted when `tokenId` token is transferred from `from` to `to`."
      }
    },
    "kind": "dev",
    "methods": {
      "approve(address,uint256)": {
        "details": "See {IERC721-approve}."
      },
      "balanceOf(address)": {
        "details": "See {IERC721-balanceOf}."
      },
      "burn(uint256)": {
        "details": "Burns `tokenId`. See {ERC721-_burn}. Requirements: - The caller must own `tokenId` or be an approved operator."
      },
      "getApproved(uint256)": {
        "details": "See {IERC721-getApproved}."
      },
      "isApprovedForAll(address,address)": {
        "details": "See {IERC721-isApprovedForAll}."
      },
      "name()": {
        "details": "See {IERC721Metadata-name}."
      },
      "owner()": {
        "details": "Returns the address of the current owner."
      },
      "ownerOf(uint256)": {
        "details": "See {IERC721-ownerOf}."
      },
      "renounceOwnership()": {
        "details": "Leaves the contract without owner. It will not be possible to call `onlyOwner` functions anymore. Can only be called by the current owner. NOTE: Renouncing ownership will leave the contract without an owner, thereby removing any functionality that is only available to the owner."
      },
      "safeTransferFrom(address,address,uint256)": {
        "details": "See {IERC721-safeTransferFrom}."
      },
      "safeTransferFrom(address,address,uint256,bytes)": {
        "details": "See {IERC721-safeTransferFrom}."
      },
      "setApprovalForAll(address,bool)": {
        "details": "See {IERC721-setApprovalForAll}."
      },
      "symbol()": {
        "details": "See {IERC721Metadata-symbol}."
      },
      "tokenByIndex(uint256)": {
        "details": "See {IERC721Enumerable-tokenByIndex}."
      },
      "tokenOfOwnerByIndex(address,uint256)": {
        "details": "See {IERC721Enumerable-tokenOfOwnerByIndex}."
      },
      "totalSupply()": {
        "details": "See {IERC721Enumerable-totalSupply}."
      },
      "transferFrom(address,address,uint256)": {
        "details": "See {IERC721-transferFrom}."
      },
      "transferOwnership(address)": {
        "details": "Transfers ownership of the contract to a new account (`newOwner`). Can only be called by the current owner."
      }
    },
    "version": 1
  },
  "userdoc": {
    "kind": "user",
    "methods": {},
    "version": 1
  }
}